:020000040800F2
:100000004804002001010008DD090008D5090008A6
:10001000D90900089F080008190D00080000000019
:10002000000000000000000000000000ED0A0008D1
:10003000A308000800000000DF090008A10B000869
:100040001B0100081B0100081B0100081B01000820
:100050001B0100081B0100081B0100081B01000810
:100060001B0100081B0100081B0100081B01000800
:100070001B0100081B0100081B0100081B010008F0
:100080001B0100081B0100081B0100081B010008E0
:100090001B0100081B0100081B0100081B010008D0
:1000A0001B0100081B0100081B0100081B010008C0
:1000B0001B0100081B010008000000001B010008D4
:1000C0001B01000800000000000000001B010008E8
:1000D000000000001B0100081B01000800000000D8
:1000E0001B0100081B0100081B010008DFF80CD0F1
:1000F00000F008FB004800475512000848040020A3
:100100000648804706480047FEE7FEE7FEE7FEE7B1
:10011000FEE7FEE7FEE7FEE7FEE7FEE7A50B0008C9
:10012000ED00000880EA010210B502F00043400033
:1001300022D04A001FD0010E01EB1261C0F356001D
:10014000C2F3560240F4000042F40002A0FB022079
:1001500000047F39140400D0401C50EA124001D43E
:100160004000491EC2B20C0604EBD010401C4008EF
:10017000802A02D003E0002010BD20F001000029F9
:1001800000DA0020184310BD2DE9FE4F804681EAB9
:100190000300C00F0C46009021F0004123F0004501
:1001A000B8EB0200A94105D24046214690461C46C4
:1001B0000B46024623F00040104347D0270DC7F3FB
:1001C0000A00C3F30A510290401A019040286BDAEA
:1001D000C3F3130040F4801B0098924620B1002323
:1001E000D2EB030A63EB0B0B01985946C0F14002B6
:1001F000504600F0D1F906460D4650465946019A40
:1002000000F0D9F910EB08006141002487EA11528F
:1002100084EAE7731A4340D0009A62B3019A012A34
:100220004FEA075215DC001B61EB02014FF0004260
:1002300002EA0752CDE90042001C41F58011324626
:100240002B4600F010FA03B0BDE8F08F404621467F
:10025000F9E7001B61EB0201001C41F58013001857
:100260005B412018A2F5001747EB030140EAD57067
:10027000B6196D4111E06D084FEA360645EAC075C2
:100280004FEA0752001B61EB0201001C41F580118F
:1002900049084FEA30000019514132462B4603B05D
:1002A000BDE8F04F00F0D0B90098012240000023D3
:1002B000D0EB020263EBE073009821464FEAE07452
:1002C000B8EB000061EB0401E9E783F000435BE772
:1002D00081F0004158E72DE9FE4F81EA030404F064
:1002E000004421F0004100944FF0000B23F0004344
:1002F00050EA01045ED052EA03045BD0C3F30A540F
:10030000C1F30A552C44A4F2F3340194A0FB025427
:10031000C1F3130141F48011C3F3130343F48013B9
:1003200001FB024400FB034E840A970A44EA81540D
:1003300047EA8357A4FB076802958D0A05FB0785EA
:100340004FEA932C04FB0C542705029D4FEA0658F4
:1003500047EA1637B5EB08056EEB070C870E920ED1
:1003600047EA811742EA8312A7FB0201B6EB0B01B1
:1003700064EB00042B0D43EA0C335E1844EB1C5075
:10038000DA465146E7FB0201C5F313044FEA0B338B
:1003900043EA14534FEA0432019C43EA0603A4F1F2
:1003A0000C040294009CCDE900B400F05CF903B0A9
:1003B000BDE8F08F00200146F9E72DE9F04D81EA14
:1003C000030404F0004B21F0004514464FF0000AEE
:1003D00023F0004150EA050220D054EA01021DD06A
:1003E000C5F30A570246C5F31303C1F31300C1F363
:1003F0000A5640F4801543F48013A7EB0608101B3F
:10040000D64608F2FD3873EB050002D308F1010867
:1004100001E092185B41B8F1000F03DA00200146B9
:10042000BDE8F08D00204FF48011064684460EE0B2
:10043000171B73EB050705D3121B63EB050306437C
:100440004CEA010C49084FEA300092185B4150EA2F
:100450000107EDD152EA030012D082EA040083EAD8
:100460000501084305D0101BAB4106D20122002331
:1004700006E000224FF0004302E06FF0010253104B
:100480001AEB06004CEB085110EB0A0041EB0B0194
:10049000BDE8F04D00F0D8B896230022114600F0D8
:1004A000A5B820F00040C10DC0F3160040F40000D4
:1004B0007F2901DA00207047962903DCC1F19601FB
:1004C000C840704796398840704700F0004230F0CD
:1004D00000400AD0C10D01F56071C0F3160042EA78
:1004E0000151C20840071143704700200146704780
:1004F00030B5041E71F1000404DB4FF000444042AB
:1005000064EB0101141E73F1000405DB1C464FF07F
:100510000043524263EB0403994208BF904230BD4E
:1005200001F0004330B421F0004150EA010206D04E
:100530000A0DA2F56072C1F31301002A02DC30BC7F
:1005400000207047440F44EAC104C100E01830BCE9
:1005500000EBC25000F041B8002801DBC0F10040C0
:10056000002901DBC1F100418142704730B50B46E3
:10057000014600202022012409E021FA02F59D42D3
:1005800005D303FA02F5491B04FA02F52844151EA7
:10059000A2F10102F1DC30BD202A04DB203A00FA8E
:1005A00002F1002070479140C2F1200320FA03F3CA
:1005B000194390407047202A06DBCB17203A41FAB6
:1005C00002F043EAE07306E041FA02F3D040C2F1E0
:1005D000200291400843194670470029A8BF704780
:1005E000401C490008BF20F00100704710B4B0FA69
:1005F00080FC00FA0CF050EA010404BF10BC704704
:1006000049B1CCF1200421FA04F411FA0CF118BF1D
:10061000012121430843A3EB0C01CB1D4FEA0061EC
:100620004FEA102042BF002010BC704700EBC350BF
:1006300010440029A4BF10BC7047401C490008BFEB
:1006400020F0010010BC704710B5141E73F10004B7
:1006500008DA401C41F1000192185B411A4301D1B4
:1006600020F0010010BD2DE9F04D92469B4611B1DE
:10067000B1FA81F202E0B0FA80F220329046FFF740
:100680008BFF04460F4640EA0A0041EA0B0153463D
:100690005A46084313D0114653EA010019D0C8F155
:1006A0004002504600F040F805460E465046594676
:1006B0004246FFF771FF084305D0012004E02046C1
:1006C0003946BDE8F08D0020054346EAE0762C432C
:1006D00037430A986305E40AA0EB08000022FD0AEC
:1006E00044EA47540A3002D500200146E9E70105F3
:1006F00010196941DDE9084500196941BDE8F04D6F
:10070000A2E70000064C074D06E0E06840F0010358
:1007100094E8070098471034AC42F6D3FFF7EAFCA0
:10072000F816000818170008202A04DB203A21FADE
:1007300002F00021704721FA02F3D040C2F12002FA
:100740009140084319467047CA430260704721B17F
:10075000826842F00102826003E0826822F00102B6
:10076000826070470146C86C80B270470246002024
:1007700013680B400BB1012000E00020704700001F
:1007800030B502460020002350680F4C20400D7900
:100790000C6844EA05242043506090680B4C2040CC
:1007A000D1E902542C434D7944EA4504204390603A
:1007B000D06A20F470000C7C641EE4B2234340EA4B
:1007C0000350D06230BD0000FFFEF0FFFDF7F1FFE7
:1007D000F0B504460D4600200021092D11DDE0682A
:1007E000A5F10A0606EB4607072606FA07F1884335
:1007F000A5F10A0606EB460603FA06F10843E06097
:100800000CE0206905EB4507072606FA07F1884347
:1008100005EB450603FA06F108432061072A0FDAC3
:10082000606B561E06EB86071F2606FA07F1884303
:10083000561E06EB860605FA06F10843606322E0C1
:100840000D2A0FDA206BD61F06EB86071F2606FA45
:1008500007F18843D61F06EB860605FA06F1084322
:10086000206310E0E06AA2F10D0606EB86071F2662
:1008700006FA07F18843A2F10D0606EB860605FA93
:1008800006F10843E062F0BD21B1826842F4A002A3
:10089000826003E0826822F4A0028260704700BF99
:1008A000FEE770472DE9F0410246002500260020B2
:1008B00000230024002791F803C00CF00F0591F8E5
:1008C00003C00CF0100CBCF1000F03D091F802C073
:1008D0004CEA050591F800C0BCF1000F31D0146856
:1008E00000202BE04FF0010C0CFA00F3B1F800C02F
:1008F0000CEA03069E4220D183004FF00F0C0CFA45
:1009000003F7BC4305FA03FC4CEA040491F803C066
:10091000BCF1280F06D14FF0010C0CFA00FCC2F814
:1009200014C00AE091F803C0BCF1480F05D14FF0A4
:10093000010C0CFA00FCC2F810C0401C0828D1D3EE
:100940001460B1F800C0BCF1FF0F34DD5468002022
:100950002EE000F1080C4FF0010808FA0CF3B1F892
:1009600000C00CEA03069E4221D183004FF00F0C19
:100970000CFA03F7BC4305FA03FC4CEA040491F8B3
:1009800003C0BCF1280F05D100F1080C08FA0CF8DF
:10099000C2F8148091F803C0BCF1480F07D100F1F0
:1009A000080C4FF0010808FA0CF8C2F81080401C3F
:1009B0000828CED35460BDE8F08102460020936839
:1009C0000B400BB1012000E00020704741617047EF
:1009D0000161704700BFFEE700BFFEE77047704748
:1009E00001460020034A506820F44040084350600C
:1009F000704700000010024029B1064A9269024384
:100A0000044B9A6104E0034A92698243014B9A6164
:100A1000704700000010024030B500210022002481
:100A200000232D4D6D6805F00C0121B1042905D07E
:100A3000082923D105E0294D056022E0274D0560F6
:100A40001FE0254D6D6805F47012234D6D6805F4A7
:100A50008034022505EB92421CB9214D55430560B7
:100A60000BE01D4D6D6805F400351DB11C4D55435F
:100A7000056002E0194D5543056002E0174D056021
:100A800000BF00BF144D6D6805F0F0010909154D58
:100A90006B5C0568DD4045600F4D6D6805F4E061F5
:100AA000090A104D6B5C4568DD4085600A4D6D6834
:100AB00005F46051C90A0B4D6B5C4568DD40C560AB
:100AC000054D6D6805F44041890B074D6B5CC568A9
:100AD000B5FBF3F5056130BD0010024000127A004D
:100AE00000093D000000002010000020704710B5F4
:100AF00000F002F810BD00000CB50020019000903D
:100B00002548006840F480302349086000BF22482F
:100B1000006800F4003000900198401C019000989B
:100B200018B90198B0F5A06FF1D11B48006800F426
:100B3000003010B10120009001E0002000900098EA
:100B4000012828D11548006840F0100013490860BA
:100B50000846006820F00300086008460068086046
:100B60000D4840680C49486008464068486008469F
:100B7000406848600846406820F003004860084626
:100B8000406840F00100486000BF0348406800F042
:100B90000C000428F9D10CBD0010024000200240D6
:100BA0007047000010B51348006840F0010011497B
:100BB000086008464068104908400E4948600846E9
:100BC00000680E4908400B4908600846006820F498
:100BD000802008600846406820F4FE0048604FF41A
:100BE0001F008860FFF783FF4FF000600449086032
:100BF00010BD0000001002400000FFF8FFFFF6FEED
:100C000008ED00E021B1828942F40052828104E0C3
:100C100082894DF6FF731A40828170470246002098
:100C2000B1F5007F00D100BF13880B400BB101204C
:100C300000E00020704700002DE9F04786B005462F
:100C40000E460024A24600BFA1460027B08900B18D
:100C500000BF2F462C8A4CF6FF700440F0880443F6
:100C60002C82AC894EF6F3100440B08831890843D9
:100C7000718908430443AC81AC8A4FF6FF400440BD
:100C8000B0890443AC8201A8FFF7C6FE1F48874223
:100C900002D1DDF810A001E0DDF80CA0A88900F475
:100CA000004040B10AEBCA0000EB0A10316849006D
:100CB000B0FBF1F807E00AEBCA0000EB0A1031685C
:100CC0008900B0FBF1F86420B8FBF0F004012009C2
:100CD000642101FB1089A88900F4004040B1322052
:100CE00000EBC900B0FBF1F000F00700044308E09E
:100CF000322000EB09106421B0FBF1F000F00F008E
:100D000004432C8106B0BDE8F087000000380140A4
:100D1000C1F308028280704700BFFEE70FB4054BA5
:100D200010B503A9044A029800F018F810BC5DF849
:100D300014FB0000A91000084400002002E008C8CD
:100D4000121F08C1002AFAD170477047002001E045
:100D500001C1121F002AFBD1704700002DE9FF4F8F
:100D600089B09B460446002506E025280BD05A464C
:100D70000B999047641C6D1C20780028F5D10DB0AC
:100D80002846BDE8F08F0027B8460122474900E019
:100D9000074314F8013F203B02FA03F00842F7D161
:100DA00020782E2819D114F8010F47F004072A28BB
:100DB0000ED06FF02F022078A0F1300109290CD855
:100DC00008EB880102EB410100EB0108641CF2E72B
:100DD0000A98641C50F8048B0A9020780028CED022
:100DE000642808D0692806D075281ED05A460B9969
:100DF00090476D1C58E00A994FF00A0901C90A9101
:100E0000002802DA40422D2102E0390504D52B21C9
:100E10008DF82010012103E0F90704D02021F7E725
:100E20008A4608AE0DE00021FAE70A994FF00A0958
:100E300001C90A91F7E74946FFF798FB303106F8F8
:100E4000011D0028F7D1ADEB060000F1200978075D
:100E500001D44FF00108C84502DDA8EB090000E00D
:100E600000208046002706E008A85A46C05D0B997E
:100E700090476D1C7F1C5745F6DB04E030205A4636
:100E80000B9990476D1CB8F10001A8F10108F5DC41
:100E900005E016F8010B5A460B9990476D1CB9F105
:100EA0000001A9F10109F4DC641C65E709280100CF
:100EB00000B587B001214FF40270FFF79DFD0020BF
:100EC000FFF78EFD0120ADF8040000208DF807002B
:100ED00001A91148FFF7E6FC002002908DF80C00F4
:100EE00001208DF80D004FF4602004900120059042
:100EF00002A90A48FFF744FC002301220821074801
:100F0000FFF766FC01210548FFF721FC012103489A
:100F1000FFF7BAFC07B000BD000C014000240140FF
:100F20004FF6FF7000BF011EA0F10100FBD170471A
:100F3000034800BF011EA0F10100FBD17047000073
:100F4000FFFF0F0000B502464FF47A7102FB01F07B
:100F500000F001F800BD01B500BF0098411E0091EE
:100F60000028FAD108BD000008B50220ADF8000045
:100F700048208DF8030069460148FFF793FC08BD3F
:100F80000008014008B50220ADF8000010208DF8DF
:100F9000030003208DF8020069460248FFF782FC37
:100FA00008BD00000008014010B50446FFF7EAFF45
:100FB00002212448FFF70AFD1220FFF7C3FF022198
:100FC0002048FFF705FD1E20FFF7C5FFFFF7CCFF08
:100FD00002211C48FFF7F1FC80BB00BF0221194829
:100FE000FFF7EBFC0028F9D000BF02211548FFF7FE
:100FF000E4FC0128F9D000F027F8207000F024F874
:10100000607000F021F8A07000F01EF8E07000F0B1
:101010001BF82071FFF7B6FF02210A48FFF7D8FC42
:10102000207861780844A1780844E178084421795F
:10103000884201D1012010BD0020FCE7FFE700201D
:10104000F9E700000008014070B50025002424E005
:1010500000BF02211348FFF7B0FC0028F9D0282078
:10106000FFF779FF02210F48FFF7A7FC01280DD1F8
:1010700000BF02210B48FFF7A0FC0128F9D0C4F102
:10108000070101208840C0B2054304E0C4F1070114
:10109000012088408543601CC4B2082CD8DB284658
:1010A00070BD00000008014070B504460D46E1B275
:1010B0000548FFF72DFE00BF80210348FFF7AEFD76
:1010C0000028F9D0204670BD0038014008B5012144
:1010D0000820FFF791FC40F6FE70ADF800001020EC
:1010E0008DF8030003208DF8020069460448FFF7DD
:1010F000D9FB40F6FE710248FFF768FC08BD00000E
:10110000000C014010B5FFF7E1FF382000F022F895
:101110000C2000F01FF8062000F01CF8012000F061
:1011200019F8802000F016F810BD70B504460D4681
:10113000802101EB8411C8B200F00CF8002604E015
:10114000A85D00F039F8701CC6B2A85D0028F7D180
:1011500070BD000010B504464FF400611548FFF75C
:1011600035FC4FF480611348FFF730FC4FF40071F9
:101170001048FFF72BFC0F480C30006820F4FF707C
:101180000C490C3108600846006840EA44000860D9
:101190000220FFF7D7FE4FF400610648FFF718FC66
:1011A0000220FFF7CFFE4FF400610248FFF70EFC6C
:1011B00010BD0000000C014010B504464FF4006162
:1011C0001548FFF703FC4FF480611348FFF7FEFB5F
:1011D0004FF400711048FFF7FBFB0F480C3000681C
:1011E00020F4FF700C490C3108600846006840EAA2
:1011F000440008600220FFF7A5FE4FF40061064896
:10120000FFF7E6FB0220FFF79DFE4FF40061024866
:10121000FFF7DCFB10BD0000000C014008B5012108
:101220000820FFF7E9FB4FF40040ADF80000102064
:101230008DF8030003208DF8020069460448FFF78B
:1012400031FB4FF400410248FFF7C0FB08BD00002E
:10125000000C014086B0FFF7E1FF00F01BFA00F040
:101260006FF9FFF725FEFFF74DFF6EA0FFF756FD64
:1012700072A0FFF753FD4FF0000AD346D0E00221E1
:101280007248FFF773FA40B17048FFF76BFA704984
:10129000088002216D48FFF757FA6D480088FFF774
:1012A000FBF80190FFF711F906460022694BFFF7A2
:1012B0000CF80022684BCDE90201FFF70CF8002280
:1012C000664BCDE90401FFF778F880460022644BB5
:1012D000FEF75AFF0446FFF723F98246614950465C
:1012E000FEF720FF0546FFF7DCF884B221465EA03A
:1012F000FFF714FD6148FFF757FE012806D15F484C
:10130000027881785EA0FFF709FD02E061A0FFF797
:1013100005FDFFF70DFE594880780A2190FBF1F09A
:10132000303060494871554880780A2190FBF1F2CD
:1013300001FB120030305B498871504800780A2167
:1013400090FBF1F03030574948734C4800780A213F
:1013500090FBF1F201FB12003030524988730020FB
:101360000874FFF7E2FE5046FFF79BF880B20A21AF
:1013700090FBF1F030304C49C8715046FFF791F8BE
:1013800080B20A2190FBF1F201FB12003030464995
:1013900008722E20487233495046FEF7C3FE0446B9
:1013A000FFF77FF880B20A2190FBF1F201FB1200F7
:1013B00030303D498872002008740120FFF7B5FEE7
:1013C00051465846FFF7C8F82AD05046FFF77DF837
:1013D00004460022354BFFF78BF811D82020324904
:1013E0000870487088702D20487388733E20C87339
:1013F000002008740120FFF798FE00F039F90EE094
:101400003C20294908702D2048708870202048739E
:101410008873C873002008740120FFF786FED34646
:101420002DE7000023232323204D79205379737463
:10143000656D20232323230D0A000000232323238B
:101440002077706620232323230D0A000024014007
:101450001400002000406B400000594000A2AC4046
:1014600000002E40000020415072657373205661C9
:101470006C75653A2025640D0A0000001C000020F0
:1014800074656D703A202564202068756D3A2025BA
:10149000640D0A004448543131204572726F720D58
:1014A0000A00000021000020320000200000494016
:1014B00010B503210E48FFF78BFA0C210C48FFF7FB
:1014C00085FAFFF72DFD02210A48FFF781FA0D2169
:1014D0000748FFF77BFAFFF723FD06210548FFF7D2
:1014E00077FA09210248FFF771FAFFF719FD10BDDD
:1014F000001001400008014010B506210E48FFF71A
:1015000067FA09210D48FFF761FAFFF709FD02218B
:101510000948FFF75DFA0D210848FFF757FAFFF772
:10152000FFFC03210548FFF753FA0C210348FFF79E
:101530004DFAFFF7F5FC10BD000801400010014016
:1015400008B501211020FFF757FA40F6FF70ADF8FB
:10155000000010208DF8030003208DF8020069467A
:101560000448FFF79FF940F6FF710248FFF72EFA93
:1015700008BD00000010014010B5C0210E48FFF763
:1015800025FA30210C48FFF723FAFFF7C9FCD021D8
:101590000948FFF71BFA20210748FFF719FAFFF760
:1015A000BFFC90210448FFF711FA60210248FFF7C1
:1015B0000FFAFFF7B5FC10BD0010014010B59021E7
:1015C0000E48FFF703FA60210C48FFF701FAFFF716
:1015D000A7FCD0210948FFF7F9F920210748FFF7B8
:1015E000F7F9FFF79DFCC0210448FFF7EFF9302120
:1015F0000248FFF7EDF9FFF793FC10BD0010014022
:1016000010B54FF440610B48FFF7E0F94FF440711B
:101610000848FFF7DDF9FFF783FC4FF450610548F8
:10162000FFF7D4F94FF400710248FFF7D1F9FFF743
:1016300077FC10BD0010014010B54FF450610B480D
:10164000FFF7C4F94FF400710848FFF7C1F9FFF73D
:1016500067FC4FF440610548FFF7B8F94FF440715B
:101660000248FFF7B5F9FFF75BFC10BD0010014021
:1016700010B5FFF781FFFFF7C3FFFFF79FFFFFF7ED
:1016800017FFFFF779FFFFF7D7FFFFF797FFFFF788
:1016900033FF10BD00B585B0012144F20400FFF70F
:1016A000ABF94FF40070ADF8000018208DF803007E
:1016B00003208DF8020069460D48FFF7F3F84FF458
:1016C000165001900020ADF80800ADF80C00ADF800
:1016D0000A00ADF810000820ADF80E0001A9054879
:1016E000FFF7AAFA01210348FFF78CFA05B000BD05
:1016F00000080140003801401817000800000020D1
:10170000480000003C0D0008601700084800002059
:10171000000400004C0D000800000000010203045A
:10172000010203040607080902040608000000007D
:1017300000000000000000000054656D703A202099
:10174000432048756D3A2020250020202020204786
:101750003A2020202020202020200000000000002F
:04000005080000ED02
:00000001FF
